{
  "contractName": "VendoMachine",
  "abi": [
    {
      "inputs": [],
      "stateMutability": "nonpayable",
      "type": "constructor"
    },
    {
      "inputs": [
        {
          "internalType": "uint256",
          "name": "amount",
          "type": "uint256"
        }
      ],
      "name": "restock",
      "outputs": [],
      "stateMutability": "nonpayable",
      "type": "function"
    },
    {
      "inputs": [],
      "name": "withdraw",
      "outputs": [],
      "stateMutability": "nonpayable",
      "type": "function"
    },
    {
      "inputs": [],
      "name": "buy",
      "outputs": [],
      "stateMutability": "payable",
      "type": "function"
    },
    {
      "inputs": [],
      "name": "getBalance",
      "outputs": [
        {
          "internalType": "uint256",
          "name": "",
          "type": "uint256"
        }
      ],
      "stateMutability": "view",
      "type": "function"
    },
    {
      "inputs": [],
      "name": "getprice",
      "outputs": [
        {
          "internalType": "uint256",
          "name": "",
          "type": "uint256"
        }
      ],
      "stateMutability": "view",
      "type": "function"
    },
    {
      "inputs": [],
      "name": "printReceipt",
      "outputs": [
        {
          "internalType": "string",
          "name": "",
          "type": "string"
        }
      ],
      "stateMutability": "view",
      "type": "function"
    }
  ],
  "bytecode": "0x608060405234801561001057600080fd5b50336000806101000a81548173ffffffffffffffffffffffffffffffffffffffff021916908373ffffffffffffffffffffffffffffffffffffffff1602179055506032600181905550671bc16d674ec80000600281905550611296806100776000396000f3fe6080604052600436106100555760003560e01c80630fcb59841461005a57806312065fe0146100855780633ccfd60b146100b057806343bc08ba146100c7578063a6f2ae3a146100f2578063c21a702a146100fc575b600080fd5b34801561006657600080fd5b5061006f610125565b60405161007c9190610d40565b60405180910390f35b34801561009157600080fd5b5061009a61012f565b6040516100a79190610d40565b60405180910390f35b3480156100bc57600080fd5b506100c5610176565b005b3480156100d357600080fd5b506100dc610296565b6040516100e99190610c5e565b60405180910390f35b6100fa610390565b005b34801561010857600080fd5b50610123600480360381019061011e9190610982565b610489565b005b6000600254905090565b6000600360003373ffffffffffffffffffffffffffffffffffffffff1673ffffffffffffffffffffffffffffffffffffffff16815260200190815260200160002054905090565b60008054906101000a900473ffffffffffffffffffffffffffffffffffffffff1673ffffffffffffffffffffffffffffffffffffffff163373ffffffffffffffffffffffffffffffffffffffff1614610204576040517f08c379a00000000000000000000000000000000000000000000000000000000081526004016101fb90610cc0565b60405180910390fd5b60004790506000811161024c576040517f08c379a000000000000000000000000000000000000000000000000000000000815260040161024390610d00565b60405180910390fd5b3373ffffffffffffffffffffffffffffffffffffffff166108fc829081150290604051600060405180830381858888f19350505050158015610292573d6000803e3d6000fd5b5050565b60606000600360003373ffffffffffffffffffffffffffffffffffffffff1673ffffffffffffffffffffffffffffffffffffffff168152602001908152602001600020541161031a576040517f08c379a000000000000000000000000000000000000000000000000000000000815260040161031190610d20565b60405180910390fd5b61032333610533565b61036b600360003373ffffffffffffffffffffffffffffffffffffffff1673ffffffffffffffffffffffffffffffffffffffff16815260200190815260200160002054610768565b60405160200161037c929190610c24565b604051602081830303815290604052905090565b60025434146103d4576040517f08c379a00000000000000000000000000000000000000000000000000000000081526004016103cb90610c80565b60405180910390fd5b600060015411610419576040517f08c379a000000000000000000000000000000000000000000000000000000000815260040161041090610ca0565b60405180910390fd5b6001600081548092919061042c90611129565b919050555034600360003373ffffffffffffffffffffffffffffffffffffffff1673ffffffffffffffffffffffffffffffffffffffff16815260200190815260200160002060008282546104809190610d82565b92505081905550565b60008054906101000a900473ffffffffffffffffffffffffffffffffffffffff1673ffffffffffffffffffffffffffffffffffffffff163373ffffffffffffffffffffffffffffffffffffffff1614610517576040517f08c379a000000000000000000000000000000000000000000000000000000000815260040161050e90610ce0565b60405180910390fd5b80600160008282546105299190610d82565b9250508190555050565b60606000602867ffffffffffffffff811115610578577f4e487b7100000000000000000000000000000000000000000000000000000000600052604160045260246000fd5b6040519080825280601f01601f1916602001820160405280156105aa5781602001600182028036833780820191505090505b50905060005b601481101561075e5760008160136105c89190611077565b60086105d49190610fe2565b60026105e09190610ec4565b8573ffffffffffffffffffffffffffffffffffffffff166106019190610e0f565b60f81b9050600060108260f81c6106189190610e40565b60f81b905060008160f81c601061062f919061103c565b8360f81c61063d91906110ab565b60f81b905061064b82610927565b858560026106599190610fe2565b81518110610690577f4e487b7100000000000000000000000000000000000000000000000000000000600052603260045260246000fd5b60200101907effffffffffffffffffffffffffffffffffffffffffffffffffffffffffffff1916908160001a9053506106c881610927565b8560018660026106d89190610fe2565b6106e29190610d82565b81518110610719577f4e487b7100000000000000000000000000000000000000000000000000000000600052603260045260246000fd5b60200101907effffffffffffffffffffffffffffffffffffffffffffffffffffffffffffff1916908160001a905350505050808061075690611153565b9150506105b0565b5080915050919050565b606060008214156107b0576040518060400160405280600181526020017f30000000000000000000000000000000000000000000000000000000000000008152509050610922565b600082905060005b600082146107e25780806107cb90611153565b915050600a826107db9190610e0f565b91506107b8565b60008167ffffffffffffffff811115610824577f4e487b7100000000000000000000000000000000000000000000000000000000600052604160045260246000fd5b6040519080825280601f01601f1916602001820160405280156108565781602001600182028036833780820191505090505b50905060008290505b6000861461091a576001816108749190611077565b90506000600a87610885919061119c565b60306108919190610dd8565b905060008160f81b9050808484815181106108d5577f4e487b7100000000000000000000000000000000000000000000000000000000600052603260045260246000fd5b60200101907effffffffffffffffffffffffffffffffffffffffffffffffffffffffffffff1916908160001a905350600a886109119190610e0f565b9750505061085f565b819450505050505b919050565b6000600a8260f81c60ff1610156109525760308260f81c6109489190610dd8565b60f81b9050610968565b60578260f81c6109629190610dd8565b60f81b90505b919050565b60008135905061097c81611249565b92915050565b60006020828403121561099457600080fd5b60006109a28482850161096d565b91505092915050565b60006109b682610d5b565b6109c08185610d66565b93506109d08185602086016110f6565b6109d98161122b565b840191505092915050565b60006109ef82610d5b565b6109f98185610d77565b9350610a098185602086016110f6565b80840191505092915050565b6000610a22601583610d66565b91507f496e636f727265637420616d6f756e742073656e7400000000000000000000006000830152602082019050919050565b6000610a62600c83610d66565b91507f4f7574206f662073746f636b00000000000000000000000000000000000000006000830152602082019050919050565b6000610aa2601783610d66565b91507f4f6e6c79206f776e65722063616e2077697468647261770000000000000000006000830152602082019050919050565b6000610ae2601683610d66565b91507f4f6e6c79206f776e65722063616e20726573746f636b000000000000000000006000830152602082019050919050565b6000610b22601683610d66565b91507f4e6f2062616c616e636520746f207769746864726177000000000000000000006000830152602082019050919050565b6000610b62601083610d77565b91507f2c20416d6f756e74205370656e743a20000000000000000000000000000000006000830152601082019050919050565b6000610ba2601183610d66565b91507f4e6f20707572636861736573206d6164650000000000000000000000000000006000830152602082019050919050565b6000610be2601283610d77565b91507f437573746f6d657220416464726573733a2000000000000000000000000000006000830152601282019050919050565b610c1e816110df565b82525050565b6000610c2f82610bd5565b9150610c3b82856109e4565b9150610c4682610b55565b9150610c5282846109e4565b91508190509392505050565b60006020820190508181036000830152610c7881846109ab565b905092915050565b60006020820190508181036000830152610c9981610a15565b9050919050565b60006020820190508181036000830152610cb981610a55565b9050919050565b60006020820190508181036000830152610cd981610a95565b9050919050565b60006020820190508181036000830152610cf981610ad5565b9050919050565b60006020820190508181036000830152610d1981610b15565b9050919050565b60006020820190508181036000830152610d3981610b95565b9050919050565b6000602082019050610d556000830184610c15565b92915050565b600081519050919050565b600082825260208201905092915050565b600081905092915050565b6000610d8d826110df565b9150610d98836110df565b9250827fffffffffffffffffffffffffffffffffffffffffffffffffffffffffffffffff03821115610dcd57610dcc6111cd565b5b828201905092915050565b6000610de3826110e9565b9150610dee836110e9565b92508260ff03821115610e0457610e036111cd565b5b828201905092915050565b6000610e1a826110df565b9150610e25836110df565b925082610e3557610e346111fc565b5b828204905092915050565b6000610e4b826110e9565b9150610e56836110e9565b925082610e6657610e656111fc565b5b828204905092915050565b6000808291508390505b6001851115610ebb57808604811115610e9757610e966111cd565b5b6001851615610ea65780820291505b8081029050610eb48561123c565b9450610e7b565b94509492505050565b6000610ecf826110df565b9150610eda836110df565b9250610f077fffffffffffffffffffffffffffffffffffffffffffffffffffffffffffffffff8484610f0f565b905092915050565b600082610f1f5760019050610fdb565b81610f2d5760009050610fdb565b8160018114610f435760028114610f4d57610f7c565b6001915050610fdb565b60ff841115610f5f57610f5e6111cd565b5b8360020a915084821115610f7657610f756111cd565b5b50610fdb565b5060208310610133831016604e8410600b8410161715610fb15782820a905083811115610fac57610fab6111cd565b5b610fdb565b610fbe8484846001610e71565b92509050818404811115610fd557610fd46111cd565b5b81810290505b9392505050565b6000610fed826110df565b9150610ff8836110df565b9250817fffffffffffffffffffffffffffffffffffffffffffffffffffffffffffffffff0483118215151615611031576110306111cd565b5b828202905092915050565b6000611047826110e9565b9150611052836110e9565b92508160ff048311821515161561106c5761106b6111cd565b5b828202905092915050565b6000611082826110df565b915061108d836110df565b9250828210156110a05761109f6111cd565b5b828203905092915050565b60006110b6826110e9565b91506110c1836110e9565b9250828210156110d4576110d36111cd565b5b828203905092915050565b6000819050919050565b600060ff82169050919050565b60005b838110156111145780820151818401526020810190506110f9565b83811115611123576000848401525b50505050565b6000611134826110df565b91506000821415611148576111476111cd565b5b600182039050919050565b600061115e826110df565b91507fffffffffffffffffffffffffffffffffffffffffffffffffffffffffffffffff821415611191576111906111cd565b5b600182019050919050565b60006111a7826110df565b91506111b2836110df565b9250826111c2576111c16111fc565b5b828206905092915050565b7f4e487b7100000000000000000000000000000000000000000000000000000000600052601160045260246000fd5b7f4e487b7100000000000000000000000000000000000000000000000000000000600052601260045260246000fd5b6000601f19601f8301169050919050565b60008160011c9050919050565b611252816110df565b811461125d57600080fd5b5056fea2646970667358221220a3e34ec6d8eb5c087344162c641f1b13ff5501958b3b08c676a887d82227356964736f6c63430008000033",
  "immutableReferences": {},
  "source": "// SPDX-License-Identifier: MIT\r\npragma solidity ^0.8.0;\r\n\r\ncontract VendoMachine {\r\n    address owner;\r\n    uint256 stock;\r\n    uint256 price;\r\n    mapping(address => uint256) balances;\r\n\r\n    constructor() {\r\n        owner = msg.sender;\r\n        stock = 50;\r\n        price = 2 ether;\r\n    }\r\n\r\n    function restock(uint256 amount) public {\r\n        require(msg.sender == owner, \"Only owner can restock\");\r\n        stock += amount;\r\n    }\r\n\r\n    function withdraw() public {\r\n        require(msg.sender == owner, \"Only owner can withdraw\");\r\n        uint256 balance = address(this).balance;\r\n        require(balance > 0, \"No balance to withdraw\");\r\n        payable(msg.sender).transfer(balance);\r\n    }\r\n\r\n    function buy() public payable {\r\n        require(msg.value == price, \"Incorrect amount sent\");\r\n        require(stock > 0, \"Out of stock\");\r\n        stock--;\r\n        balances[msg.sender] += msg.value;\r\n    }\r\n\r\n    function getBalance() public view returns (uint256) {\r\n        return balances[msg.sender];\r\n    }\r\n    function getprice() public view  returns (uint256){\r\n        return price;\r\n    }\r\n\r\n    function printReceipt() public view returns (string memory) {\r\n        require(balances[msg.sender] > 0, \"No purchases made\");\r\n        return string(abi.encodePacked(\"Customer Address: \", toAsciiString(msg.sender), \", Amount Spent: \", uint2str(balances[msg.sender])));\r\n    }\r\n\r\n    function toAsciiString(address x) private pure returns (string memory) {\r\n        bytes memory s = new bytes(40);\r\n        for (uint i = 0; i < 20; i++) {\r\n            bytes1 b = bytes1(uint8(uint(uint160(x)) / (2**(8*(19 - i)))));\r\n            bytes1 hi = bytes1(uint8(b) / 16);\r\n            bytes1 lo = bytes1(uint8(b) - 16 * uint8(hi));\r\n            s[2*i] = char(hi);\r\n            s[2*i+1] = char(lo);            \r\n        }\r\n        return string(s);\r\n    }\r\n\r\n    function char(bytes1 b) private pure returns (bytes1 c) {\r\n        if (uint8(b) < 10) return bytes1(uint8(b) + 0x30);\r\n        else return bytes1(uint8(b) + 0x57);\r\n    }\r\n\r\n    function uint2str(uint256 num) private pure returns (string memory) {\r\n        if (num == 0) {\r\n            return \"0\";\r\n        }\r\n        uint256 j = num;\r\n        uint256 length;\r\n        while (j != 0) {\r\n            length++;\r\n            j /= 10;\r\n        }\r\n        bytes memory bstr = new bytes(length);\r\n        uint256 k = length;\r\n        while (num != 0) {\r\n            k = k-1;\r\n            uint8 temp = uint8(48 + uint8(num % 10));\r\n            bytes1 b1 = bytes1(temp);\r\n            bstr[k] = b1;\r\n            num /= 10;\r\n        }\r\n        return string(bstr);\r\n    }\r\n}\r\n",
  "sourcePath": "C:\\Users\\Mahesvara27\\Desktop\\6BCHAIN\\dAPP Finals\\VendoMachineFinals\\contracts\\VendoMachine.sol",
  "compiler": {
    "name": "solc",
    "version": "0.8.0+commit.c7dfd78e.Emscripten.clang"
  },
  "schemaVersion": "3.4.13",
  "updatedAt": "2023-05-01T05:48:51.430Z",
  "devdoc": {
    "kind": "dev",
    "methods": {},
    "version": 1
  },
  "userdoc": {
    "kind": "user",
    "methods": {},
    "version": 1
  }
}