{
  "contractName": "VendoMachine",
  "abi": [
    {
      "inputs": [],
      "stateMutability": "nonpayable",
      "type": "constructor"
    },
    {
      "inputs": [
        {
          "internalType": "uint256",
          "name": "amount",
          "type": "uint256"
        }
      ],
      "name": "restock",
      "outputs": [],
      "stateMutability": "nonpayable",
      "type": "function"
    },
    {
      "inputs": [],
      "name": "withdraw",
      "outputs": [],
      "stateMutability": "nonpayable",
      "type": "function"
    },
    {
      "inputs": [],
      "name": "buy",
      "outputs": [],
      "stateMutability": "payable",
      "type": "function",
      "payable": true
    },
    {
      "inputs": [],
      "name": "getBalance",
      "outputs": [
        {
          "internalType": "uint256",
          "name": "",
          "type": "uint256"
        }
      ],
      "stateMutability": "view",
      "type": "function",
      "constant": true
    },
    {
      "inputs": [],
      "name": "getprice",
      "outputs": [
        {
          "internalType": "uint256",
          "name": "",
          "type": "uint256"
        }
      ],
      "stateMutability": "view",
      "type": "function",
      "constant": true
    },
    {
      "inputs": [],
      "name": "getStock",
      "outputs": [
        {
          "internalType": "uint256",
          "name": "",
          "type": "uint256"
        }
      ],
      "stateMutability": "view",
      "type": "function",
      "constant": true
    },
    {
      "inputs": [],
      "name": "printReceipt",
      "outputs": [
        {
          "internalType": "string",
          "name": "",
          "type": "string"
        }
      ],
      "stateMutability": "view",
      "type": "function",
      "constant": true
    }
  ],
  "bytecode": "0x608060405234801561001057600080fd5b50600080546001600160a01b031916331790556032600155671bc16d674ec800006002556109d1806100436000396000f3fe6080604052600436106100705760003560e01c806343bc08ba1161004e57806343bc08ba146100d2578063a6f2ae3a146100f4578063c21a702a146100fc578063e38ffcd81461011c57600080fd5b80630fcb59841461007557806312065fe0146100995780633ccfd60b146100bb575b600080fd5b34801561008157600080fd5b506002545b6040519081526020015b60405180910390f35b3480156100a557600080fd5b5033600090815260036020526040902054610086565b3480156100c757600080fd5b506100d0610131565b005b3480156100de57600080fd5b506100e7610208565b604051610090919061068c565b6100d06102a2565b34801561010857600080fd5b506100d06101173660046106bf565b610367565b34801561012857600080fd5b50600154610086565b6000546001600160a01b031633146101905760405162461bcd60e51b815260206004820152601760248201527f4f6e6c79206f776e65722063616e20776974686472617700000000000000000060448201526064015b60405180910390fd5b47806101d75760405162461bcd60e51b81526020600482015260166024820152754e6f2062616c616e636520746f20776974686472617760501b6044820152606401610187565b604051339082156108fc029083906000818181858888f19350505050158015610204573d6000803e3d6000fd5b5050565b3360009081526003602052604090205460609061025b5760405162461bcd60e51b81526020600482015260116024820152704e6f20707572636861736573206d61646560781b6044820152606401610187565b610264336103d4565b3360009081526003602052604090205461027d9061051b565b60405160200161028e9291906106d8565b604051602081830303815290604052905090565b60025434146102eb5760405162461bcd60e51b8152602060048201526015602482015274125b98dbdc9c9958dd08185b5bdd5b9d081cd95b9d605a1b6044820152606401610187565b60006001541161032c5760405162461bcd60e51b815260206004820152600c60248201526b4f7574206f662073746f636b60a01b6044820152606401610187565b6001805490600061033c83610757565b9091555050336000908152600360205260408120805434929061036090849061076e565b9091555050565b6000546001600160a01b031633146103ba5760405162461bcd60e51b81526020600482015260166024820152754f6e6c79206f776e65722063616e20726573746f636b60501b6044820152606401610187565b80600160008282546103cc919061076e565b909155505050565b60408051602880825260608281019093526000919060208201818036833701905050905060005b601481101561051457600061041182601361079d565b61041c9060086107b0565b6104279060026108ab565b61043a906001600160a01b0387166108d4565b60f81b9050600060108260f81c61045191906108e8565b60f81b905060008160f81c6010610468919061090a565b8360f81c6104769190610926565b60f81b905061048482610632565b856104908660026107b0565b815181106104a0576104a061093f565b60200101906001600160f81b031916908160001a9053506104c081610632565b856104cc8660026107b0565b6104d790600161076e565b815181106104e7576104e761093f565b60200101906001600160f81b031916908160001a905350505050808061050c90610955565b9150506103fb565b5092915050565b6060816000036105425750506040805180820190915260018152600360fc1b602082015290565b8160005b811561056c578061055681610955565b91506105659050600a836108d4565b9150610546565b60008167ffffffffffffffff81111561058757610587610787565b6040519080825280601f01601f1916602001820160405280156105b1576020820181803683370190505b509050815b8515610629576105c760018261079d565b905060006105d6600a8861096e565b6105e1906030610982565b905060008160f81b9050808484815181106105fe576105fe61093f565b60200101906001600160f81b031916908160001a905350610620600a896108d4565b975050506105b6565b50949350505050565b6000600a60f883901c10156106595761065060f883901c6030610982565b60f81b92915050565b61065060f883901c6057610982565b60005b8381101561068357818101518382015260200161066b565b50506000910152565b60208152600082518060208401526106ab816040850160208701610668565b601f01601f19169190910160400192915050565b6000602082840312156106d157600080fd5b5035919050565b71021bab9ba37b6b2b91020b2323932b9b99d160751b815260008351610705816012850160208801610668565b6f0161020b6b7bab73a1029b832b73a1d160851b6012918401918201528351610735816022840160208801610668565b01602201949350505050565b634e487b7160e01b600052601160045260246000fd5b60008161076657610766610741565b506000190190565b8082018082111561078157610781610741565b92915050565b634e487b7160e01b600052604160045260246000fd5b8181038181111561078157610781610741565b808202811582820484141761078157610781610741565b600181815b808511156108025781600019048211156107e8576107e8610741565b808516156107f557918102915b93841c93908002906107cc565b509250929050565b60008261081957506001610781565b8161082657506000610781565b816001811461083c576002811461084657610862565b6001915050610781565b60ff84111561085757610857610741565b50506001821b610781565b5060208310610133831016604e8410600b8410161715610885575081810a610781565b61088f83836107c7565b80600019048211156108a3576108a3610741565b029392505050565b60006108b7838361080a565b9392505050565b634e487b7160e01b600052601260045260246000fd5b6000826108e3576108e36108be565b500490565b600060ff8316806108fb576108fb6108be565b8060ff84160491505092915050565b60ff818116838216029081169081811461051457610514610741565b60ff828116828216039081111561078157610781610741565b634e487b7160e01b600052603260045260246000fd5b60006001820161096757610967610741565b5060010190565b60008261097d5761097d6108be565b500690565b60ff81811683821601908111156107815761078161074156fea2646970667358221220370ec68ce8c252ffd20a606fbb8fa458b6918b28f5955ade5b2eb11dbb72048364736f6c63430008130033",
  "immutableReferences": {},
  "source": "// SPDX-License-Identifier: MIT\r\npragma solidity ^0.8.0;\r\n\r\ncontract VendoMachine {\r\n    address owner;\r\n    uint256 stock;\r\n    uint256 price;\r\n    mapping(address => uint256) balances;\r\n\r\n    constructor() {\r\n        owner = msg.sender;\r\n        stock = 50;\r\n        price = 2 ether;\r\n    }\r\n\r\n    function restock(uint256 amount) public {\r\n        require(msg.sender == owner, \"Only owner can restock\");\r\n        stock += amount;\r\n    }\r\n\r\n    function withdraw() public {\r\n        require(msg.sender == owner, \"Only owner can withdraw\");\r\n        uint256 balance = address(this).balance;\r\n        require(balance > 0, \"No balance to withdraw\");\r\n        payable(msg.sender).transfer(balance);\r\n    }\r\n\r\n    function buy() public payable {\r\n        require(msg.value == price, \"Incorrect amount sent\");\r\n        require(stock > 0, \"Out of stock\");\r\n        stock--;\r\n        balances[msg.sender] += msg.value;\r\n    }\r\n\r\n    function getBalance() public view returns (uint256) {\r\n        return balances[msg.sender];\r\n    }\r\n    function getprice() public view  returns (uint256){\r\n        return price;\r\n    }\r\n    function getStock() public view returns (uint256) {\r\n        return stock;\r\n    }\r\n\r\n    function printReceipt() public view returns (string memory) {\r\n        require(balances[msg.sender] > 0, \"No purchases made\");\r\n        return string(abi.encodePacked(\"Customer Address: \", toAsciiString(msg.sender), \", Amount Spent: \", uint2str(balances[msg.sender])));\r\n    }\r\n\r\n    function toAsciiString(address x) private pure returns (string memory) {\r\n        bytes memory s = new bytes(40);\r\n        for (uint i = 0; i < 20; i++) {\r\n            bytes1 b = bytes1(uint8(uint(uint160(x)) / (2**(8*(19 - i)))));\r\n            bytes1 hi = bytes1(uint8(b) / 16);\r\n            bytes1 lo = bytes1(uint8(b) - 16 * uint8(hi));\r\n            s[2*i] = char(hi);\r\n            s[2*i+1] = char(lo);            \r\n        }\r\n        return string(s);\r\n    }\r\n\r\n    function char(bytes1 b) private pure returns (bytes1 c) {\r\n        if (uint8(b) < 10) return bytes1(uint8(b) + 0x30);\r\n        else return bytes1(uint8(b) + 0x57);\r\n    }\r\n\r\n    function uint2str(uint256 num) private pure returns (string memory) {\r\n        if (num == 0) {\r\n            return \"0\";\r\n        }\r\n        uint256 j = num;\r\n        uint256 length;\r\n        while (j != 0) {\r\n            length++;\r\n            j /= 10;\r\n        }\r\n        bytes memory bstr = new bytes(length);\r\n        uint256 k = length;\r\n        while (num != 0) {\r\n            k = k-1;\r\n            uint8 temp = uint8(48 + uint8(num % 10));\r\n            bytes1 b1 = bytes1(temp);\r\n            bstr[k] = b1;\r\n            num /= 10;\r\n        }\r\n        return string(bstr);\r\n    }\r\n}\r\n",
  "sourcePath": "C:\\Users\\Mahesvara27\\Desktop\\6BCHAIN\\dAPP Finals\\VendoMachineFinals\\contracts\\VendoMachine.sol",
  "compiler": {
    "name": "solc",
    "version": "0.8.19+commit.7dd6d404.Emscripten.clang"
  },
  "schemaVersion": "3.4.13",
  "updatedAt": "2023-05-01T13:35:22.616Z",
  "networkType": "ethereum",
  "devdoc": {
    "kind": "dev",
    "methods": {},
    "version": 1
  },
  "userdoc": {
    "kind": "user",
    "methods": {},
    "version": 1
  }
}